:100000000C9456000C946B000C946B000C946B00D9
:100010000C946B000C946B000C946B000C946B00B4
:100020000C946B000C946B000C946B000C946B00A4
:100030000C946B000C946B000C946B000C946B0094
:100040000C946B000C946B000C946B000C946B0084
:100050000C946B000C946B000C946B000C946B0074
:100060000C946B000C946B000C946B000C946B0064
:100070000C946B000C946B000C946B000C946B0054
:100080000C946B000C946B000C946B000C946B0044
:100090000C946B000C946B000C946B000C946B0034
:1000A0000C946B000C946B000C946B0011241FBE1D
:1000B000CFEFDAE0DEBFCDBF11E0A0E0B1E0E6E5D2
:1000C000F2E002C005900D92AC30B107D9F70E9462
:1000D0001D010C9429010C9400008C9A8FE99FE07B
:1000E0000197F1F700C000008C98089580FF02C0CE
:1000F000589A01C0589881FF02C0599A01C0599876
:1001000082FF02C05A9A01C05A9883FF02C05B9ACC
:1001100001C05B9884FF02C05C9A01C05C9885FFB7
:1001200002C05D9A01C05D9886FF02C02C9A01C092
:100130002C98882314F42F9A01C02F9888988998B6
:100140000E946D008FE39FE10197F1F700C000006E
:1001500008958FE38AB980E984B983E180BB2FEFEA
:1001600083EF91E0215080409040E1F700C0000013
:100170008CE30E9476008CE00E94760086E00E946C
:10018000760081E00E94760080E80E947600089563
:1001900081E00E9476008FE39FE10197F1F700C0B4
:1001A000000080E80E9476008FE39FE10197F1F75D
:1001B00000C00000089580FF02C0589A01C05898FE
:1001C00081FF02C0599A01C0599882FF02C05A9A11
:1001D00001C05A9883FF02C05B9A01C05B9884FFFC
:1001E00002C05C9A01C05C9885FF02C05D9A01C0A4
:1001F0005D9886FF02C02C9A01C02C98882314F4C5
:100200002F9A01C02F98889A89980E946D008FE3D9
:100210009FE10197F1F700C000000895CF93DF93AD
:10022000EC018881882331F021960E94DB008991BE
:100230008111FBCFDF91CF91089580E885BF85BF05
:100240000E94A9000E94C80080E091E00E940E0177
:06025000F9CFF894FFCF86
:0C02560043617420466565646572000019
:00000001FF
