:100000000C9456000C946B000C946B000C946B00D9
:100010000C946B000C946B000C946B000C946B00B4
:100020000C946B000C946B000C946B000C946B00A4
:100030000C946B000C946B000C946B000C946B0094
:100040000C946B000C946B000C946B000C946B0084
:100050000C946B000C946B000C946B000C946B0074
:100060000C946B000C946B000C946B000C946B0064
:100070000C946B000C946B000C946B000C946B0054
:100080000C946B000C946B000C946B000C946B0044
:100090000C946B000C946B000C946B000C946B0034
:1000A0000C946B000C946B000C946B0011241FBE1D
:1000B000CFEFDAE0DEBFCDBF11E0A0E0B1E0E2E8D3
:1000C000F2E002C005900D92AC30B107D9F70E9462
:1000D00033010C943F010C9400008C9A8FE99FE04F
:1000E0000197F1F700C000008C9808958295982F31
:1000F0009373292F220F220F982F9C7C969596950B
:10010000922B892F8575880F9A7A9695892B089559
:100110000E94760080FF02C0589A01C0589881FF63
:1001200002C0599A01C0599882FF02C05A9A01C070
:100130005A9883FF02C05B9A01C05B9884FF02C09B
:100140005C9A01C05C9885FF02C05D9A01C05D9811
:1001500086FF02C02C9A01C02C98882314F42F9A91
:1001600001C02F98889889980E946D008FE39FE1C5
:100170000197F1F700C0000008958FE38AB980E984
:1001800084B983E180BB2FEF83EF91E02150804061
:100190009040E1F700C000008CE30E9488008CE0F2
:1001A0000E94880086E00E94880081E00E9488000A
:1001B00080E80E948800089581E00E9488008FE313
:1001C0009FE10197F1F700C0000080E80E948800DD
:1001D0008FE39FE10197F1F700C0000008950E94AE
:1001E000760080FF02C0589A01C0589881FF02C073
:1001F000599A01C0599882FF02C05A9A01C05A9870
:1002000083FF02C05B9A01C05B9884FF02C05C9AC6
:1002100001C05C9885FF02C05D9A01C05D9886FFB1
:1002200002C02C9A01C02C98882314F42F9A01C084
:100230002F98889A89980E946D008FE39FE101971B
:10024000F1F700C000000895CF93DF93EC0188819F
:10025000882331F021960E94EF0089918111FBCF14
:10026000DF91CF91089580E885BF85BF0E94BD00D2
:100270000E94DC0080E091E00E942401F9CFF89414
:02028000FFCFAE
:0C028200436174204665656465720000ED
:00000001FF
